:100000002BC04FC04EC04DC04CC04BC04AC049C0B1
:1000100048C023C246C0D7C144C043C042C041C04B
:1000200040C000003A00370000003B0038000000EC
:100030003900360001010101010101010202020142
:1000400002040810204080040201000000000004A7
:10005000030201000000C00311241FBECFE5D2E05F
:10006000DEBFCDBF10E0A0E6B0E0E0EBFBE002C0F9
:1000700005900D92A036B107D9F720E0A0E6B0E0D8
:1000800001C01D92AF38B207E1F710E0CCE2D0E03A
:1000900003C02197FE0184D5CB32D107D1F734D2EA
:1000A00085C5AECF823099F018F4813069F008959B
:1000B000833019F0843021F008958FB58F7702C016
:1000C0008FB58F7D8FBD089580B78F7702C080B7C1
:1000D0008F7D80BF0895CF93DF93282F30E0F90103
:1000E000E65BFF4F8491F901E15CFF4FD491F90188
:1000F000EC5CFF4FC491CC2389F08111D3DFEC2F4E
:10010000F0E0EE0FFF1FE25DFF4FA591B491EC917F
:10011000ED2381E090E021F480E002C080E090E0F7
:10012000DF91CF9108951F93CF93DF93282F30E075
:10013000F901E65BFF4F8491F901E15CFF4FD49137
:10014000F901EC5CFF4FC491CC23C1F0162F811153
:10015000A9DFEC2FF0E0EE0FFF1FE85DFF4FA59148
:10016000B4918FB7F894111105C09C91ED2FE095D3
:10017000E92302C0EC91ED2BEC938FBFDF91CF917F
:100180001F910895CF93DF9390E0FC01E15CFF4F56
:100190002491FC01EC5CFF4F8491882361F190E095
:1001A000880F991FFC01EE5DFF4FC591D491FC01B2
:1001B000E85DFF4FA591B491611109C09FB7F89414
:1001C0008881209582238883EC912E230BC0623096
:1001D00061F49FB7F8943881822F809583238883B8
:1001E000EC912E2B2C939FBF06C08FB7F894E8811B
:1001F0002E2B28838FBFDF91CF9108952FB7F894CE
:1002000060916A0070916B0080916C0090916D001C
:100210002FBF0895F89480B78F7B80BF80B78F770A
:1002200080BF80B78F7E80BF80B78F7D80BF78947E
:100230000895CF93DF93EC0180916E00811106C089
:1002400081E080936E00E6DF109260008091610093
:1002500090916200C817D90731F010926000D093D6
:100260006200C0936100DF91CF9108958F929F92B9
:10027000AF92BF92CF92DF92EF92FF920F931F93B4
:10028000CF93DF938C01EB0180916E00882381F086
:1002900010926E00F89480B7806480BF80B7806849
:1002A00080BF80B7806180BF80B7806280BF789454
:1002B000F894CD3D85E0D80724F0BE016C5D754013
:1002C00004C06CED75E06C1B7D0BCB01770FAA0BA6
:1002D000BB0BBC01CD01695171098109910921E074
:1002E0003FEF4FEF5FEF99D249015A0191E0891634
:1002F00095E299069EEFA9069FEFB9060CF449C056
:10030000CD3D85E0D80724F0BE016C5D754004C08A
:100310006CED75E06C1B7D0BCB01770FAA0BBB0B53
:10032000BC01CD01695171098109910921E03FEFBB
:100330004FEF5FEF72D249015A019BED891691E0B0
:100340009906A104B1043CF5CD3D85E0D8071CF029
:10035000CC5DD54006C06CED75E0CB018C1B9D0BD0
:10036000EC01CE01DD0FAA0BBB0BBC01CD01695125
:1003700071098109910921E03FEF4FEF5FEF4DD205
:10038000B901CA012BED31E040E050E02AD2215002
:1003900003C020E001C02FEF0830110511F426BF83
:1003A00004C00730110509F42CBF7894DF91CF9178
:1003B0001F910F91FF90EF90DF90CF90BF90AF9083
:1003C0009F908F9008951F920F920FB60F92112455
:1003D0002F933F938F939F93AF93BF9380916A0026
:1003E00090916B00A0916C00B0916D00309169000C
:1003F00026E0230F2D3720F40296A11DB11D05C064
:1004000029E8230F0396A11DB11D20936900809355
:100410006A0090936B00A0936C00B0936D00809184
:10042000650090916600A0916700B0916800019608
:10043000A11DB11D8093650090936600A093670095
:10044000B0936800BF91AF919F918F913F912F9191
:100450000F900FBE0F901F9018951F920F920FB61E
:100460000F9211242F933F934F935F936F937F933A
:100470008F939F93AF93BF93CF93DF93EF93FF93AC
:10048000809163009091640001968D33910528F46A
:10049000909364008093630024C0109264001092D3
:1004A000630080916E008823E1F0D091600060913C
:1004B0006100709162000D2E02C0769567950A94D6
:1004C000E2F7C62FC1706C2F88E02DDE6C2F87E01D
:1004D0002ADEDF3020F4DF5FD093600002C010928C
:1004E0006000FF91EF91DF91CF91BF91AF919F910C
:1004F0008F917F916F915F914F913F912F910F90CD
:100500000FBE0F901F901895789480B7826080BFBF
:1005100080B7816080BF83B7826083BF83B781600B
:1005200083BF89B7816089BF1EBC8EB582608EBDD6
:100530008EB581608EBD8FB581608FBD329A319A44
:100540003098379A60E083E01DDE60E082E01ADEDA
:1005500060E083E017DE60E081E014DE60E084E0CC
:1005600011DE61E080E00EDE61E085E00BDE61E03F
:1005700086E008DE61E088E005DE61E087E002DE1B
:10058000F8941FBC1EBC12BC8FB580688FBD8FB5A0
:1005900080628FBD8FB582608FBD8EB588608EBD45
:1005A0008EB580618EBD8EB582608EBD8FE19EE47A
:1005B00095BD84BD789480B7816080BF80B782602C
:1005C00080BF28DE81E080936E0089B7826089BF9A
:1005D00085E595E52EDE12DE812C20E8922E2BEBB0
:1005E000A22E24E4B22E80927B0090927C00A092F6
:1005F0007D00B0927E00C12C30E4D32E3CE1E32E8E
:1006000034E4F32EC0927F00D0928000E09281000B
:10061000F092820060938300709384008093850041
:1006200090938600EBDD80926F0090927000A09214
:100630007100B0927200C0927300D0927400E09288
:100640007500F09276006093770070937800809345
:10065000790090937A0010928B0010928C00109287
:100660008D0010928E0010928700109288001092D8
:10067000890010928A0061E080E055DD00E010E022
:10068000BDDDC0908B00D0908C00E0908D00F0908C
:100690008E00C616D706E806F90608F04DC0AEDD96
:1006A000F1D120E030E048E452E45CD1BFD1609366
:1006B0008B0070938C0080938D0090938E0084E06B
:1006C0000ADD7C0183E007DDEC0182E004DDEF2838
:1006D00039F4CD2B51F0892B69F080E090E002C015
:1006E00087E090E0CCEDD5E009C080E090E0C0ED7F
:1006F000D7E004C080E090E0C8EED3E0F8949E011B
:10070000C13D47E0D40714F020ED37E02150310916
:1007100039BD28BD7894F8943BBD2ABD78940097E4
:1007200049F4BE0188E090E0A1DDBE0187E090E0E1
:100730009DDD20C07EDD1EC061DDC0908700D090B1
:100740008800E0908900F0908A00C616D706E80677
:10075000F90680F453DD96D120E030E04AE753E417
:1007600001D164D1609387007093880080938900E1
:1007700090938A000115110509F482CF41DC80CFE6
:10078000CF92DF92EF92FF92CF93DF93CBE7D0E04F
:10079000188219821A821B82C12CD12C88E4E82E7F
:1007A00082E4F82ECC82DD82EE82FF8227DD68872C
:1007B00079878A879B87CFE6D0E0188219821A82D0
:1007C0001B82CC82DD82EE82FF8218DD688779870A
:1007D0008A879B87DF91CF91FF90EF90DF90CF903A
:1007E0000895052E97FB16F400940FD057FD05D001
:1007F00068D007FC02D046F408C05095409530956B
:1008000021953F4F4F4F5F4F08959095809570957C
:1008100061957F4F8F4F9F4F089568940013E89420
:10082000A0E0B0E0E5E1F4E01DC0EFEFE7F9590129
:100830006A015E23550FEE08FE2C87019B01AC0177
:100840009E23990F660B762FCB015DD0CDB7DEB717
:10085000EAE024C02F923F924F925F926F927F9274
:100860008F929F92AF92BF92CF92DF92EF92FF92C0
:100870000F931F93CF93DF93CDB7DEB7CA1BDB0B6C
:100880000FB6F894DEBF0FBECDBF09942A88398811
:1008900048885F846E847D848C849B84AA84B98418
:1008A000C884DF80EE80FD800C811B81AA81B98124
:1008B000CE0FD11D0FB6F894DEBF0FBECDBFED0138
:1008C0000895A1E21A2EAA1BBB1BFD010DC0AA1F91
:1008D000BB1FEE1FFF1FA217B307E407F50720F0A9
:1008E000A21BB30BE40BF50B661F771F881F991F24
:1008F0001A9469F760957095809590959B01AC016D
:10090000BD01CF010895DF93CF939F92A0E49A2E6B
:100910000024D001E001F00116950795F794E794C3
:10092000D794C794B794A79448F41068A20FB31F44
:10093000C41FD51FE61FF71F081E191E220F331FE5
:10094000441F551F661F771F881F991F9A9421F710
:100950009D01AE01BF01C00111249F90CF91DF9195
:1009600008955058BB27AA270ED0E0C0D1D030F050
:10097000D6D020F031F49F3F11F41EF4C6C00EF41F
:10098000E095E7FBBCC0E92FE2D080F3BA1762071D
:1009900073078407950718F071F49EF5FAC00EF4FA
:1009A000E0950B2EBA2FA02D0B01B90190010C017F
:1009B000CA01A0011124FF27591B99F0593F50F497
:1009C000503E68F11A16F040A22F232F342F4427EF
:1009D000585FF3CF469537952795A795F0405395E7
:1009E000C9F77EF41F16BA0B620B730B840BBAF0B7
:1009F0009150A1F0FF0FBB1F661F771F881FC2F722
:100A00000EC0BA0F621F731F841F48F48795779535
:100A10006795B795F7959E3F08F0B3CF9395880FEC
:100A200008F09927EE0F97958795089598D088F04C
:100A30009F5790F0B92F9927B751A0F0D1F0660FCA
:100A4000771F881F991F1AF0BA95C9F712C0B130E5
:100A500081F09FD0B1E008959CC0672F782F882740
:100A6000B85F39F0B93FCCF3869577956795B39524
:100A7000D9F73EF490958095709561957F4F8F4F93
:100A80009F4F0895E89409C097FB3EF49095809598
:100A9000709561957F4F8F4F9F4F9923A9F0F92F44
:100AA00096E9BB279395F695879577956795B795C2
:100AB000F111F8CFFAF4BB0F11F460FF1BC06F5FA8
:100AC0007F4F8F4F9F4F16C0882311F096E911C0BA
:100AD000772321F09EE8872F762F05C0662371F0DB
:100AE00096E8862F70E060E02AF09A95660F771FEF
:100AF000881FDAF7880F9695879597F9089597F9E3
:100B00009F6780E870E060E008959FEF80EC0895B3
:100B100000240A94161617061806090608950024DC
:100B20000A9412161306140605060895092E039456
:100B3000000C11F4882352F0BB0F40F4BF2B11F4CA
:100B400060FF04C06F5F7F4F8F4F9F4F089557FD29
:100B50009058440F551F59F05F3F71F04795880F2B
:100B600097FB991F61F09F3F79F0879508951216C2
:100B700013061406551FF2CF4695F1DF08C016166E
:100B800017061806991FF1CF86957105610508941F
:100B90000895E894BB2766277727CB0197F9089536
:100BA000EE0FFF1F0590F491E02D0994F894FFCF0C
:00000001FF
