:100000002BC04FC04EC04DC04CC04BC04AC049C0B1
:1000100048C070C246C024C244C043C042C041C0B0
:1000200040C000003A00370000003B0038000000EC
:100030003900360001010101010101010202020142
:1000400002040810204080040201000000000004A7
:10005000030201000000300511241FBECFE5D2E0ED
:10006000DEBFCDBF10E0A0E6B0E0ECE1FDE002C0F5
:1000700005900D92A036B107D9F720E0A0E6B0E0D8
:1000800001C01D92A339B207E1F710E0CCE2D0E045
:1000900003C02197FE013AD6CB32D107D1F781D2E6
:1000A0003BC6AECF823099F018F4813069F00895E4
:1000B000833019F0843021F008958FB58F7702C016
:1000C0008FB58F7D8FBD089580B78F7702C080B7C1
:1000D0008F7D80BF08951F93CF93DF93282F30E04B
:1000E000F901E65BFF4F8491F901E15CFF4FD49188
:1000F000F901EC5CFF4FC491CC23C1F0162F8111A4
:10010000D1DFEC2FF0E0EE0FFF1FE85DFF4FA59170
:10011000B4918FB7F894111105C09C91ED2FE09523
:10012000E92302C0EC91ED2BEC938FBFDF91CF91CF
:100130001F910895CF93DF9390E0FC01E15CFF4FA6
:100140002491FC01EC5CFF4F8491882361F190E0E5
:10015000880F991FFC01EE5DFF4FC591D491FC0102
:10016000E85DFF4FA591B491611109C09FB7F89464
:100170008881209582238883EC912E230BC06230E6
:1001800061F49FB7F8943881822F80958323888308
:10019000EC912E2B2C939FBF06C08FB7F894E8816B
:1001A0002E2B28838FBFDF91CF9108958E3008F0DA
:1001B0008E5093B183FB222720F930E045E0220FD7
:1001C000331F4A95E1F79F7D292B23B9877087B9A3
:1001D000369A3699FECF84B125B190E0922B0895DE
:1001E0003FB7F89480916A0090916B00A0916C00E9
:1001F000B0916D0022B708B600FE05C02F3F19F080
:100200000196A11DB11D3FBFBA2FA92F982F882796
:10021000820F911DA11DB11DBC01CD0143E0660FF0
:10022000771F881F991F4A95D1F708958F929F9243
:10023000AF92BF92CF92DF92EF92FF92D1DF4B014C
:100240005C018AE0C82ED12CE12CF12CC9DFDC0145
:10025000CB0188199909AA09BB09883E9340A105D9
:10026000B10558F021E0C21AD108E108F10888EE82
:10027000880E83E0981EA11CB11CC114D104E104B6
:10028000F10421F7FF90EF90DF90CF90BF90AF90F7
:100290009F908F9008952FB7F894609166007091A9
:1002A000670080916800909169002FBF0895F894CD
:1002B00080B78F7B80BF80B78F7780BF80B78F7EFE
:1002C00080BF80B78F7D80BF78940895CF93DF93F0
:1002D000EC0180916E00811106C081E080936E0078
:1002E000E6DF109260008091610090916200C81773
:1002F000D90731F010926000D0936200C093610082
:10030000DF91CF9108958F929F92AF92BF92CF923B
:10031000DF92EF92FF920F931F93CF93DF938C01A5
:10032000EB0180916E00882381F010926E00F894AA
:1003300080B7806480BF80B7806880BF80B78061ED
:1003400080BF80B7806280BF7894F894CD3D85E00F
:10035000D80724F0BE016C5D754004C06CED75E0FB
:100360006C1B7D0BCB01770FAA0BBB0BBC01CD0126
:10037000695171098109910921E03FEF4FEF5FEF6A
:10038000BCD349015A0191E0891695E299069EEF86
:10039000A9069FEFB9060CF449C0CD3D85E0D8070A
:1003A00024F0BE016C5D754004C06CED75E06C1B03
:1003B0007D0BCB01770FAA0BBB0BBC01CD016951A3
:1003C00071098109910921E03FEF4FEF5FEF95D36C
:1003D00049015A019BED891691E09906A104B104E7
:1003E0003CF5CD3D85E0D8071CF0CC5DD54006C07E
:1003F0006CED75E0CB018C1B9D0BEC01CE01DD0F8C
:10040000AA0BBB0BBC01CD0169517109810991098E
:1004100021E03FEF4FEF5FEF70D3B901CA012BED41
:1004200031E040E050E04DD3215003C020E001C056
:100430002FEF0830110511F426BF04C00730110555
:1004400009F42CBF7894DF91CF911F910F91FF9009
:10045000EF90DF90CF90BF90AF909F908F900895D6
:100460001F920F920FB60F9211242F933F938F93E9
:100470009F93AF93BF938091660090916700A09186
:100480006800B09169003091650026E0230F2D3798
:1004900020F40296A11DB11D05C029E8230F039683
:1004A000A11DB11D209365008093660090936700A5
:1004B000A0936800B093690080916A0090916B00EE
:1004C000A0916C00B0916D000196A11DB11D8093AB
:1004D0006A0090936B00A0936C00B0936D00BF9185
:1004E000AF919F918F913F912F910F900FBE0F90E1
:1004F0001F9018951F920F920FB60F9211242F93F1
:100500003F934F935F936F937F938F939F93AF939B
:10051000BF93CF93DF93EF93FF938091630090910C
:10052000640001968D33910528F4909364008093C4
:10053000630024C0109264001092630080916E00EA
:100540008823E1F0D09160006091610070916200B9
:100550000D2E02C0769567950A94E2F7C62FC170FA
:100560006C2F88E0B8DD6C2F87E0B5DDDF3020F43C
:10057000DF5FD093600002C010926000FF91EF91A6
:10058000DF91CF91BF91AF919F918F917F916F91AB
:100590005F914F913F912F910F900FBE0F901F9041
:1005A0001895789480B7826080BF80B7816080BFE3
:1005B00083B7826083BF83B7816083BF89B781605F
:1005C00089BF1EBC8EB582608EBD8EB581608EBD2A
:1005D0008FB581608FBD329A319A3098379A60E03A
:1005E00083E0A8DD60E082E0A5DD60E083E0A2DDDD
:1005F00060E081E09FDD60E084E09CDD61E080E020
:1006000099DD61E085E096DD61E086E093DD61E003
:1006100088E090DD61E087E08DDDF8941FBC1EBCB2
:1006200012BC8FB580688FBD8FB580628FBD8FB5CE
:1006300082608FBD8EB588608EBD8EB580618EBDA7
:100640008EB582608EBD8FE19EE495BD84BD7894A9
:1006500080B7816080BF80B7826080BF28DE81E084
:1006600080936E0089B7826089BF85E595E52EDEAF
:1006700012DE812C20E8922E2BEBA22E24E4B22E47
:1006800080927B0090927C00A0927D00B0927E00D0
:10069000C12C30E4D32E3CE1E32E34E4F32EC0929F
:1006A0007F00D0928000E0928100F09282006093FF
:1006B0008300709384008093850090938600EBDD27
:1006C00080926F0090927000A0927100B0927200C0
:1006D000C0927300D0927400E0927500F0927600A0
:1006E00060937700709378008093790090937A00FC
:1006F00022242A9443E0342E412C512CCCDD00914D
:100700008F00109190002091910030919200601B19
:10071000710B820B930B95D220E030E048E452E459
:10072000CDD218160CF025C1B6DD60938F00709302
:1007300090008093910090939200EEE4F0E0849119
:10074000E3E4F0E0D491E8E3F0E0C491CC2399F045
:100750008111A8DCEC2FF0E0EE0FFF1FE25DFF4FF0
:10076000A591B4918C91D82391E080E009F490E0B8
:10077000C92ED82E02C0C12CD12C83E017DD8C01EC
:1007800082E014DDEC0183E011DD7C0181E00EDD0F
:100790003C01CD2809F09CC0B801645F7F4F072E53
:1007A000000C880B990B28EE33E040E050E0A5D117
:1007B000B901CA01A201910184D149015A01F8EE9F
:1007C0008F0EF3E09F1EA11CB11C8401BE01645F6B
:1007D0007F4F072E000C880B990B28EE33E040E08A
:1007E00050E08BD1B901CA01A20191016AD1BA01CD
:1007F000A90148515C4F6F4F7F4FEA0180918A00F9
:10080000882321F09091890091115FC09091880018
:10081000992309F453C090918700992309F44EC09D
:10082000B701645F7F4F072E000C880B990B28EEF1
:1008300033E040E050E061D1B901CA01A201910169
:1008400040D169017A0188EEC80E83E0D81EE11C10
:10085000F11CB301645F7F4F072E000C880B990BCE
:1008600020E233E040E050E048D1B901CA01A201E2
:10087000910127D1DA01C90180599140A109B1093B
:100880008C010C0D1D1D083EE3E01E073CF0013DF0
:10089000F7E01F072CF000ED17E002C008EE13E0B0
:1008A000E601C81BD90BC83E23E0D207A4F0C13D26
:1008B00037E0D30754F0C0EDD7E007C0811110C076
:1008C00080918900882371F08A0180E090E010C057
:1008D00087E090E009C080E090E0C8EED3E008C077
:1008E000E401F3CF85E090E0CCEDD5E00CED15E030
:1008F000F8941016110664F4083E43E014075CF007
:100900009801013DE7E01E0744F020ED37E005C007
:100910002CED35E002C028EE33E02150310939BD1D
:1009200028BD7894F8941C161D0664F4C83EF3E0C4
:10093000DF075CF09E01C13D47E0D40744F020EDA5
:1009400037E005C02CED35E002C028EE33E0215041
:1009500031093BBD2ABD7894009749F4B80188E07D
:1009600090E0D1DCBE0187E090E0CDDC72C0AEDC6F
:1009700070C091DC00918B0010918C0020918D0053
:1009800030918E00601B710B820B930B5AD120E0CB
:1009900030E04AE753E492D118160CF05AC07BDCE1
:1009A00060938B0070938C0080938D0090938E00E9
:1009B00061E080E090DB3ADC83E0F8DB4C0182E030
:1009C000F5DB6C0183E0F2DB8C0181E0EFDBEC0115
:1009D00060E080E080DB2ADC83E0E8DB3C0182E051
:1009E000E5DB5C0183E0E2DB7C0181E0DFDB21E031
:1009F000E4E16E16710434F4FCEE8F16F3E09F060A
:100A00000CF020E020938A0024E1A216B10444F403
:100A100021E03CEEC31633E0D3061CF020E001C019
:100A200021E02093890021E044E1E416F10424F45C
:100A30000C3E13400CF020E020938800449734F4DF
:100A400081E0CC3ED3401CF080E001C081E0809387
:100A5000870020E030E0232B09F450CED1DA4ECECF
:100A6000CF92DF92EF92FF92CF93DF93CBE7D0E06C
:100A7000188219821A821B82C12CD12C88E4E82E9C
:100A800082E4F82ECC82DD82EE82FF8204DC68876D
:100A900079878A879B87CFE6D0E0188219821A82ED
:100AA0001B82CC82DD82EE82FF82F5DB688779874C
:100AB0008A879B87DF91CF91FF90EF90DF90CF9057
:100AC0000895052E97FB16F400940FD057FD05D01E
:100AD00068D007FC02D046F408C050954095309588
:100AE00021953F4F4F4F5F4F08959095809570959A
:100AF00061957F4F8F4F9F4F089568940013E8943E
:100B0000A0E0B0E0E5E8F5E01DC0EFEFE7F959013E
:100B10006A015E23550FEE08FE2C87019B01AC0194
:100B20009E23990F660B762FCB015DD0CDB7DEB734
:100B3000EAE024C02F923F924F925F926F927F9291
:100B40008F929F92AF92BF92CF92DF92EF92FF92DD
:100B50000F931F93CF93DF93CDB7DEB7CA1BDB0B89
:100B60000FB6F894DEBF0FBECDBF09942A8839882E
:100B700048885F846E847D848C849B84AA84B98435
:100B8000C884DF80EE80FD800C811B81AA81B98141
:100B9000CE0FD11D0FB6F894DEBF0FBECDBFED0155
:100BA0000895A1E21A2EAA1BBB1BFD010DC0AA1FAE
:100BB000BB1FEE1FFF1FA217B307E407F50720F0C6
:100BC000A21BB30BE40BF50B661F771F881F991F41
:100BD0001A9469F760957095809590959B01AC018A
:100BE000BD01CF010895DF93CF939F92A0E49A2E89
:100BF0000024D001E001F00116950795F794E794E1
:100C0000D794C794B794A79448F41068A20FB31F61
:100C1000C41FD51FE61FF71F081E191E220F331F02
:100C2000441F551F661F771F881F991F9A9421F72D
:100C30009D01AE01BF01C00111249F90CF91DF91B2
:100C40000895E89409C097FB3EF4909580957095BF
:100C500061957F4F8F4F9F4F9923A9F0F92F96E908
:100C6000BB279395F695879577956795B795F1117D
:100C7000F8CFFAF4BB0F11F460FF1BC06F5F7F4F1A
:100C80008F4F9F4F16C0882311F096E911C077232C
:100C900021F09EE8872F762F05C0662371F096E835
:100CA000862F70E060E02AF09A95660F771F881F04
:100CB000DAF7880F9695879597F9089503D008F489
:100CC0008FEF0895990F0008550FAA0BE0E8FEEF8B
:100CD00016161706E807F907C0F012161306E40700
:100CE000F50798F0621B730B840B950B39F40A26F9
:100CF00061F0232B242B252B21F408950A2609F4D7
:100D0000A140A6958FEF811D811D0895EE0FFF1F55
:0C0D10000590F491E02D0994F894FFCFB9
:00000001FF
