:100000002BC04FC04EC04DC04CC04BC04AC049C0B1
:1000100048C0EBC246C09FC244C043C042C041C0BA
:1000200040C000003A00370000003B0038000000EC
:100030003900360001010101010101010202020142
:1000400002040810204080040201000000000004A7
:10005000030201000000CF0511241FBECFE5D2E04E
:10006000DEBFCDBF10E0A0E6B0E0E6EDF1E102C0FA
:1000700005900D92A036B107D9F720E0A0E6B0E0D8
:1000800001C01D92A339B207E1F710E0CCE2D0E045
:1000900003C02197FE0197D8CB32D107D1F7FCD20C
:1000A00098C8AECF823099F018F4813069F0089585
:1000B000833019F0843021F008958FB58F7702C016
:1000C0008FB58F7D8FBD089580B78F7702C080B7C1
:1000D0008F7D80BF08951F93CF93DF93282F30E04B
:1000E000F901E65BFF4F8491F901E15CFF4FD49188
:1000F000F901EC5CFF4FC491CC23C1F0162F8111A4
:10010000D1DFEC2FF0E0EE0FFF1FE85DFF4FA59170
:10011000B4918FB7F894111105C09C91ED2FE09523
:10012000E92302C0EC91ED2BEC938FBFDF91CF91CF
:100130001F910895CF93DF9390E0FC01E15CFF4FA6
:100140002491FC01EC5CFF4F8491882361F190E0E5
:10015000880F991FFC01EE5DFF4FC591D491FC0102
:10016000E85DFF4FA591B491611109C09FB7F89464
:100170008881209582238883EC912E230BC06230E6
:1001800061F49FB7F8943881822F80958323888308
:10019000EC912E2B2C939FBF06C08FB7F894E8816B
:1001A0002E2B28838FBFDF91CF9108958E3008F0DA
:1001B0008E5093B183FB222720F930E045E0220FD7
:1001C000331F4A95E1F79F7D292B23B9877087B9A3
:1001D000369A3699FECF84B125B190E0922B0895DE
:1001E0003FB7F89480916A0090916B00A0916C00E9
:1001F000B0916D0022B708B600FE05C02F3F19F080
:100200000196A11DB11D3FBFBA2FA92F982F882796
:10021000820F911DA11DB11DBC01CD0143E0660FF0
:10022000771F881F991F4A95D1F708958F929F9243
:10023000AF92BF92CF92DF92EF92FF92D1DF4B014C
:100240005C018AE0C82ED12CE12CF12CC9DFDC0145
:10025000CB0188199909AA09BB09883E9340A105D9
:10026000B10558F021E0C21AD108E108F10888EE82
:10027000880E83E0981EA11CB11CC114D104E104B6
:10028000F10421F7FF90EF90DF90CF90BF90AF90F7
:100290009F908F9008952FB7F894609166007091A9
:1002A000670080916800909169002FBF08952F9298
:1002B0003F924F925F926F927F928F929F92AF92F6
:1002C000BF92CF92DF92EF92FF920F931F93CF9343
:1002D000DF937C011A016B01DEDFF70100851185D8
:1002E00022853385601B710B820B930B4BD620E06C
:1002F00030E04AE754E4ADD52B013C01CCDFF701F7
:10030000608771878287938780809180A280B38085
:100310002481358146815781C301B201E9D62B0181
:100320003C019B01AC01C501B4012BD58B01D82F39
:10033000C92F9B01482F592FB101C601D5D61816D8
:100340009CF0A3019201C501B4011AD58B01D82FED
:10035000C92F9B01482F592FB101C60176D587FDC2
:1003600003C08101DC2DCD2DC801AD2FBC2FF701BD
:1003700080839183A283B383B8018D2F9C2FDF915B
:10038000CF911F910F91FF90EF90DF90CF90BF9092
:10039000AF909F908F907F906F905F904F903F9025
:1003A0002F900895F89480B78F7B80BF80B78F77A8
:1003B00080BF80B78F7E80BF80B78F7D80BF7894ED
:1003C0000895CF93DF93EC0180916E00811106C0F8
:1003D00081E080936E00E6DF109260008091610002
:1003E00090916200C817D90731F010926000D09345
:1003F0006200C0936100DF91CF9108958F929F9228
:10040000AF92BF92CF92DF92EF92FF920F931F9322
:10041000CF93DF938C01EB0180916E00882381F0F4
:1004200010926E00F89480B7806480BF80B78068B7
:1004300080BF80B7806180BF80B7806280BF7894C2
:10044000F894CD3D85E0D80724F0BE016C5D754081
:1004500004C06CED75E06C1B7D0BCB01770FAA0B14
:10046000BB0BBC01CD01695171098109910921E0E2
:100470003FEF4FEF5FEFE0D349015A0191E089165A
:1004800095E299069EEFA9069FEFB9060CF449C0C4
:10049000CD3D85E0D80724F0BE016C5D754004C0F9
:1004A0006CED75E06C1B7D0BCB01770FAA0BBB0BC2
:1004B000BC01CD01695171098109910921E03FEF2A
:1004C0004FEF5FEFB9D349015A019BED891691E0D7
:1004D0009906A104B1043CF5CD3D85E0D8071CF098
:1004E000CC5DD54006C06CED75E0CB018C1B9D0B3F
:1004F000EC01CE01DD0FAA0BBB0BBC01CD01695194
:1005000071098109910921E03FEF4FEF5FEF94D32B
:10051000B901CA012BED31E040E050E071D3215028
:1005200003C020E001C02FEF0830110511F426BFF1
:1005300004C00730110509F42CBF7894DF91CF91E6
:100540001F910F91FF90EF90DF90CF90BF90AF90F1
:100550009F908F9008951F920F920FB60F921124C3
:100560002F933F938F939F93AF93BF938091660098
:1005700090916700A0916800B0916900309165008A
:1005800026E0230F2D3720F40296A11DB11D05C0D2
:1005900029E8230F0396A11DB11D209365008093C8
:1005A000660090936700A0936800B0936900809103
:1005B0006A0090916B00A0916C00B0916D00019663
:1005C000A11DB11D80936A0090936B00A0936C00F5
:1005D000B0936D00BF91AF919F918F913F912F91FB
:1005E0000F900FBE0F901F9018951F920F920FB68D
:1005F0000F9211242F933F934F935F936F937F93A9
:100600008F939F93AF93BF93CF93DF93EF93FF931A
:10061000809163009091640001968D33910528F4D8
:10062000909364008093630024C010926400109241
:10063000630080916E008823E1F0D09160006091AA
:100640006100709162000D2E02C0769567950A9444
:10065000E2F7C62FC1706C2F88E03DDD6C2F87E07C
:100660003ADDDF3020F4DF5FD093600002C01092EB
:100670006000FF91EF91DF91CF91BF91AF919F917A
:100680008F917F916F915F914F913F912F910F903B
:100690000FBE0F901F901895789480B7826080BF2E
:1006A00080B7816080BF83B7826083BF83B781607A
:1006B00083BF89B7816089BF1EBC8EB582608EBD45
:1006C0008EB581608EBD8FB581608FBD329A319AB3
:1006D0003098379A60E083E02DDD60E082E02ADD2B
:1006E00060E083E027DD60E081E024DD60E084E01D
:1006F00021DD61E080E01EDD61E085E01BDD61E081
:1007000086E018DD61E088E015DD61E087E012DD5C
:10071000F8941FBC1EBC12BC8FB580688FBD8FB50E
:1007200080628FBD8FB582608FBD8EB588608EBDB3
:100730008EB580618EBD8EB582608EBD8FE19EE4E8
:1007400095BD84BD789480B7816080BF80B782609A
:1007500080BF28DE81E080936E0089B7826089BF08
:1007600085E595E52EDE97DD812C50E8952E5BEB37
:10077000A52E54E4B52E80927B0090927C00A0922E
:100780007D00B0927E00C12CE0E4DE2EECE1EE2E86
:10079000E4E4FE2EC0927F00D0928000E0928100BF
:1007A000F0928200609383007093840080938500B0
:1007B0009093860070DD80926F0090927000A092FE
:1007C0007100B0927200C0927300D0927400E092F7
:1007D0007500F092760060937700709378008093B4
:1007E000790090937A0088248A94F3E09F2EA12CBC
:1007F000B12C51DD00918F0010919000209191005B
:1008000030919200601B710B820B930BBBD320E0E5
:1008100030E048E452E468D418160CF049C13BDDDE
:1008200060938F007093900080939100909392005A
:10083000EEE4F0E08491E3E4F0E0D491E8E3F0E06A
:10084000C491CC2399F081112DDCEC2FF0E0EE0F58
:10085000FF1FE25DFF4FA591B4918C91D82391E0E9
:1008600080E009F490E0C92ED82E02C0C12CD12C12
:1008700083E09CDC7C0182E099DCEC0183E096DC87
:100880008C0181E093DC1C01CD2809F0A2C0B701E6
:10089000645F7F4F072E000C880B990B28EE33E026
:1008A00040E050E0C9D1B901CA01A5019401A8D125
:1008B00029013A01F8EE4F0EF3E05F1E611C711C36
:1008C0007201BE01645F7F4F072E000C880B990BED
:1008D00028EE33E040E050E0AFD1B901CA01A501F4
:1008E00094018ED1BA01A90148515C4F6F4F7F4FDF
:1008F000EA0180918A00882321F09091890091116A
:1009000065C090918800992309F459C0909187009F
:10091000992309F454C0B801645F7F4F072E000C7F
:10092000880B990B28EE33E040E050E085D1B90107
:10093000CA01A501940164D129013A0188EE480E4B
:1009400083E0581E611C711CB101645F7F4F072E4C
:10095000000C880B990B20E233E040E050E06CD1B2
:10096000B901CA01A50194014BD1DA01C90180592D
:100970009140A109B1097C01E40CF51CE8EEEE16EA
:10098000E3E0FE0654F0F1EDEF16F7E0FF064CF061
:1009900030EDE32E37E0F32E04C028EEE22E23E004
:1009A000F22EE201C81BD90BC83E23E0D207A4F007
:1009B000C13D37E0D30754F0C0EDD7E007C0811147
:1009C00010C080918900882371F07A0100E010E066
:1009D00012C007E010E009C000E010E0C8EED3E06C
:1009E0000AC0E201F3CF05E010E0CCEDD5E08CEDDC
:1009F000E82E85E0F82EB701FF0C880B990BC4D2C6
:100A0000AB01BC018BE790E052DC8BD26B017C0127
:100A1000BE01DD0F880B990BB7D2AB01BC018FE68D
:100A200090E045DC7ED22B013C019B01F8941C1424
:100A30001D0474F448EEC41643E0D40664F0C60105
:100A4000E1EDCE16E7E0DE0644F080ED97E005C06C
:100A50008CED95E002C088EE93E0019799BD88BDCA
:100A60007894F894121613065CF4283EF3E03F07DE
:100A700054F0C201213D374044F080ED97E005C0BD
:100A80008CED95E002C088EE93E001979BBD8ABD96
:100A900078940115110549F4B60188E090E0AEDCC8
:100AA000B20187E090E0AADC73C0C8018ADC70C0A4
:100AB000F2DB00918B0010918C0020918D00309121
:100AC0008E00601B710B820B930B5CD220E030E038
:100AD0004AE753E409D318160CF05AC0DCDB6093E4
:100AE0008B0070938C0080938D0090938E0061E05A
:100AF00080E0F1DA9BDB83E059DB3C0182E056DBEE
:100B00006C0183E053DB8C0181E050DBEC0160E0A1
:100B100080E0E1DA8BDB83E049DB2C0182E046DB1D
:100B20001C0183E043DB7C0181E040DB21E0E4E168
:100B30004E16510434F4FCEE6F16F3E07F060CF011
:100B400020E020938A0024E12216310444F421E0BD
:100B50003CEEC31633E0D3061CF020E001C021E0D8
:100B60002093890021E044E1E416F10424F40C3ED2
:100B700013400CF020E020938800449734F481E087
:100B8000CC3ED3401CF080E001C081E08093870020
:100B900020E030E0232B09F42CCE32DA2ACECF929B
:100BA000DF92EF92FF92CF93DF93CBE7D0E01882F2
:100BB00019821A821B82C12CD12C88E4E82E82E48F
:100BC000F82ECC82DD82EE82FF8265DB6887798732
:100BD0008A879B87CFE6D0E0188219821A821B820F
:100BE000CC82DD82EE82FF8256DB688779878A8736
:100BF0009B87DF91CF91FF90EF90DF90CF9008958A
:100C0000052E97FB16F400940FD057FD05D068D041
:100C100007FC02D046F408C05095409530952195C8
:100C20003F4F4F4F5F4F0895909580957095619518
:100C30007F4F8F4F9F4F089568940013E894A0E072
:100C4000B0E0E4E2F6E01DC0EFEFE7F959016A0118
:100C50005E23550FEE08FE2C87019B01AC019E23FD
:100C6000990F660B762FCB015DD0CDB7DEB7EAE0EA
:100C700024C02F923F924F925F926F927F928F92F9
:100C80009F92AF92BF92CF92DF92EF92FF920F931B
:100C90001F93CF93DF93CDB7DEB7CA1BDB0B0FB625
:100CA000F894DEBF0FBECDBF09942A8839884888E2
:100CB0005F846E847D848C849B84AA84B984C88478
:100CC000DF80EE80FD800C811B81AA81B981CE0F6F
:100CD000D11D0FB6F894DEBF0FBECDBFED01089554
:100CE000A1E21A2EAA1BBB1BFD010DC0AA1FBB1F30
:100CF000EE1FFF1FA217B307E407F50720F0A21BA2
:100D0000B30BE40BF50B661F771F881F991F1A940E
:100D100069F760957095809590959B01AC01BD0138
:100D2000CF010895DF93CF939F92A0E49A2E0024E1
:100D3000D001E001F00116950795F794E794D79458
:100D4000C794B794A79448F41068A20FB31FC41FA8
:100D5000D51FE61FF71F081E191E220F331F441F41
:100D6000551F661F771F881F991F9A9421F79D01B1
:100D7000AE01BF01C00111249F90CF91DF91089572
:100D80005058BB27AA270ED075C166D130F06BD161
:100D900020F031F49F3F11F41EF45BC10EF4E09596
:100DA000E7FB51C1E92F77D180F3BA1762077307C8
:100DB0008407950718F071F49EF58FC10EF4E09545
:100DC0000B2EBA2FA02D0B01B90190010C01CA0105
:100DD000A0011124FF27591B99F0593F50F4503EB0
:100DE00068F11A16F040A22F232F342F4427585FA2
:100DF000F3CF469537952795A795F0405395C9F7BA
:100E00007EF41F16BA0B620B730B840BBAF0915071
:100E1000A1F0FF0FBB1F661F771F881FC2F70EC010
:100E2000BA0F621F731F841F48F4879577956795E3
:100E3000B795F7959E3F08F0B3CF9395880F08F0CC
:100E40009927EE0F979587950895D9D008F481E0FA
:100E500008950CD00FC107D140F0FED030F021F43E
:100E60005F3F19F0F0C0511139C1F3C014D198F3AC
:100E70009923C9F35523B1F3951B550BBB27AA271B
:100E800062177307840738F09F5F5F4F220F331F8D
:100E9000441FAA1FA9F333D00E2E3AF0E0E830D059
:100EA00091505040E695001CCAF729D0FE2F27D05C
:100EB000660F771F881FBB1F261737074807AB072A
:100EC000B0E809F0BB0B802DBF01FF2793585F4F9F
:100ED0002AF09E3F510568F0B6C000C15F3FECF3B9
:100EE000983EDCF3869577956795B795F7959F5F64
:100EF000C9F7880F911D9695879597F90895E1E0B8
:100F0000660F771F881FBB1F621773078407BA0716
:100F100020F0621B730B840BBA0BEE1F88F7E09571
:100F2000089504D06894B111D9C00895BCD088F058
:100F30009F5790F0B92F9927B751A0F0D1F0660FC5
:100F4000771F881F991F1AF0BA95C9F712C0B130E0
:100F500081F0C3D0B1E00895C0C0672F782F8827F3
:100F6000B85F39F0B93FCCF3869577956795B3951F
:100F7000D9F73EF490958095709561957F4F8F4F8E
:100F80009F4F0895E89409C097FB3EF49095809593
:100F9000709561957F4F8F4F9F4F9923A9F0F92F3F
:100FA00096E9BB279395F695879577956795B795BD
:100FB000F111F8CFFAF4BB0F11F460FF1BC06F5FA3
:100FC0007F4F8F4F9F4F16C0882311F096E911C0B5
:100FD000772321F09EE8872F762F05C0662371F0D6
:100FE00096E8862F70E060E02AF09A95660F771FEA
:100FF000881FDAF7880F9695879597F90895990FC6
:101000000008550FAA0BE0E8FEEF16161706E807D2
:10101000F907C0F012161306E407F50798F0621BF3
:10102000730B840B950B39F40A2661F0232B242BC8
:10103000252B21F408950A2609F4A140A6958FEFE7
:10104000811D811D089597F99F6780E870E060E039
:1010500008959FEF80EC089500240A941616170651
:1010600018060906089500240A9412161306140699
:1010700005060895092E0394000C11F4882352F0FC
:10108000BB0F40F4BF2B11F460FF04C06F5F7F4FB4
:101090008F4F9F4F089557FD9058440F551F59F09B
:1010A0005F3F71F04795880F97FB991F61F09F3F55
:1010B00079F087950895121613061406551FF2CF7E
:1010C0004695F1DF08C0161617061806991FF1CFCE
:1010D00086957105610508940895E894BB276627F5
:1010E0007727CB0197F908958ADF08F48FEF0895E9
:1010F0000AD0C0CFB1DF28F0B6DF18F0952309F091
:10110000A2CFA7CFEBCFC7DFA8F39923D9F35523FD
:10111000C9F3950F50E0551FAA27EE27FF27BB27DD
:1011200000240894679520F4E20FF31FB41F0A1EF1
:10113000220F331F441FAA1F6695A9F7779530F435
:10114000F30FB41F0A1E121E08F46395330F441FD9
:10115000AA1F221F769599F7879520F4B40F0A1ECF
:10116000121E631F440FAA1F221F331F8695A9F763
:10117000862F712D602D11249F5750408AF0E1F089
:1011800088234AF0EE0FFF1FBB1F661F771F881FC3
:1011900091505040A9F79E3F510570F054CF9ECF1B
:1011A0005F3FECF3983EDCF3869577956795B795AE
:1011B000F795E7959F5FC1F7FE2B880F911D9695D8
:1011C000879597F90895EE0FFF1F0590F491E02D94
:0611D0000994F894FFCF22
:00000001FF
